:020000040000FA
:020000000328D3
:040002000034003492
:0A000600831203138501831603170C
:100010008801890183160313850186018701880100
:10002000890100308700FF308800031383128501A7
:100030008601870188018901B401B501A501A601E6
:10004000A701A801A901B001B101B201B601B70130
:10005000B801B901C001C101C201C301B30105105A
:100060000130860085143323851033230C3086003D
:1000700085143323851033233C30860085143323C5
:10008000851033234B203D231021CE203A214828D0
:1000900064215E22462805103323833086002E23F8
:1000A00005143323573086002E23493086002E2333
:1000B0004E3086002E23443086002E234F3086009B
:1000C0002E23573086002E23533086002E232030D7
:1000D00086002E23313086002E23303086002E23DA
:1000E00005103323923086002E23051433232A3043
:1000F00086002E23493086002E234E3086002E2384
:10010000493086002E23433086002E234930860056
:100110002E23413086002E23203086002E2355309A
:1001200086002E23533086002E23453086002E2352
:10013000523086002E2305103323D23086002E2322
:1001400005143323493086002E234E3086002E239B
:10015000493086002E23433086002E234930860006
:100160002E23413086002E234E3086002E2344302D
:1001700086002E234F3086002E23203086002E232B
:100180002E3086002E232E3086002E232E30860021
:100190002E230710871488180800512305103323D5
:1001A000903086002E2305143323503086002E23F2
:1001B000523086002E23553086002E23453086008F
:1001C0002E23423086002E23413086002E232030FD
:1001D00086002E233A3086002E23203086002E23E0
:1001E000080005103323C83086002E23051433235E
:1001F0002A3086002E232A3086002E232A308600BD
:100200002E232A3086002E232A3086002E232A30E1
:1002100086002E232A3086002E232A3086002E23A5
:1002200005103323803086002E23051433235230EB
:1002300086002E23453086002E23413086002E2353
:100240004C3086002E233A3086002E232030860044
:100250002E23080005103323C83086002E230514F2
:100260003323080005103323D83086002E230514CD
:10027000332308002A218E21341C3B293308B60081
:100280008E21341C40293308B7008E21341C4529A7
:100290003308B8008E21341C4A293308B9008E2156
:1002A000341C4F293308C0008E21341C54293308D4
:1002B000C1008E21341C59293308C2008E21341C00
:1002C0005E293308C300080032218E21341C6529C1
:1002D0003308A5008E21341C6A293308A6008E211C
:1002E000341C6F293308A7008E21341C742933086D
:1002F000A8008E21341C79293308A9008E21341CD2
:100300007E293308B0008E21341C83293308B100C4
:100310008E21341C88293308B200080034100714D9
:100320000818C021071087140818CA21871007155C
:100330000818D421071107148818DE210710871424
:100340008818E821871007158818F221071107146B
:100350000819FC21071087140819062287100715B1
:10036000081910220711071488192F220710871463
:1003700088191A22871007158819232207110800E7
:100380000130B300313086002E2334140818C629FA
:10039000642308000230B300323086002E23341468
:1003A0000818D029642308000330B30033308600D6
:1003B0002E2334140818DA29642308000430B3000B
:1003C000343086002E2334148818E429642308006E
:1003D0000530B300353086002E2334148818EE29FA
:1003E000642308000630B300363086002E23341410
:1003F0008818F829642308000730B30037308600D6
:100400002E2334140819022A642308000830B3008C
:10041000383086002E23341408190C2A642308006F
:100420000930B300393086002E2334140819162AF7
:10043000642308000030B300303086002E233414CB
:100440008819202A08003022B401B501A501A601AF
:10045000A701A801A901B001B101B2014828080013
:1004600005103323D83086002E2305143323203083
:1004700086002E23203086002E23203086002E2357
:10048000203086002E23203086002E232030860048
:100490002E23203086002E23203086002E230800B5
:1004A0003D23CE201021F120642908002A30860047
:1004B0002E230800331C240DA40D08003608B300B9
:1004C0002506031DD0223708B3002606031DD022BF
:1004D0003808B3002706031DD0223908B3002806C8
:1004E000031DD0224008B3002906031DD022410875
:1004F000B3003006031DD0224208B3003106031DAD
:10050000D0224308B3003206031DD02288220800FF
:100510003D230130890005103323C13086002E238E
:1005200005143323433086002E234F3086002E23BC
:10053000523086002E23523086002E23453086000E
:100540002E23433086002E23543086002E234F3036
:1005500086002E2305103323913086002E230514A8
:100560003323473086002E23523086002E2341301D
:1005700086002E23433086002E23493086002E230A
:10058000413086002E23533086002E233A308600D9
:100590002E23293086002E2307148819502A892AF1
:1005A0003D230230890005103323C13086002E23FD
:1005B00005143323433086002E234F3086002E232C
:1005C0004E3086002E23543086002E235230860073
:1005D0002E23413086002E2353308600453086007E
:1005E0002E23D13086002E23413086002E23051085
:1005F0003323913086002E2305143323493086009F
:100600002E234E3086002E23433086002E234F307B
:1006100086002E23523086002E23523086002E2351
:10062000453086002E23433086002E23543086002A
:100630002E23413086002E233A3086002E23283088
:1006400086002E2307148819502AD12A0510332337
:10065000883086002E2305143323080085143323A5
:10066000851033230800A2010A30A3005030A200F5
:10067000A20B382BA30B362B080005100130860087
:1006800085143323851033230C30860085143323DF
:10069000851033233C3086008514332385103323A3
:1006A00008002530C700C70B532BEF30C4000000F3
:1006B000EB30C50000001C30C600C60B5D2BC50B1F
:1006C0005A2BC40B572B080005103323103086001B
:0E06D0002E23051433232A3086002E23080023
:02400E00F42C90
:02401000FF3F70
:00000001FF
